:04000000020029329F
:01000B0032C2
:0100130032BA
:01001B0032B2
:030023000201686F
:0B008200750B41751400C2000200263F
:030026000204D001
:20008D00AC82AD83AEF0FFEC4D4E4F7017F58053A0E390079BE493F5807B00BB64005003A5
:2000AD000B80F822750900EF30E710750901C3E49CFCE49DFDE49EFEE49FFF750800EC4D06
:2000CD004E4F605A75160AE4F517F518F5198C828D838EF0EFC007C006C005C0041206F66D
:2000ED00A882D004D005D006D007AB08050875800053A0E3EB2B25E042A0E890079B93F549
:20010D008075160AE4F517F518F5198C828D838EF0EF120745AC82AD83AEF0FF80A0E509C0
:20012D00600F758000E508FA25E025E0F5A07580402253890F438920758DFD758BFDC2AB31
:20014D00D28EC29FD29ED2ACD2AFD29C22AF82C2AC8F9910990280FBD2AC22C021C0E0C004
:20016D00F0C082C083C007C006C005C004C003C002C001C000C0D075D00075A01030980D12
:20018D00E599F4F5A085990A120438C298D0D0D000D001D002D003D004D005D006D007D06F
:2001AD0083D082D0F0D0E0D0213274C0250B500685148202015A7402B5140280157405B594
:2001CD00140280147406B51402800A7407B5140E80090201EC02025A0202C902037E22748B
:2001ED00F8250B400122E50BFF24C0402AEFC423541F240CF987065307078FF005F07F8057
:20020D00E4FD3392D28008A2D2ED13FDEF13FFD5F0F5EFF4FF5EF7E50B24F8F50BE50BFF73
:20022D0024C04028EFC423541F240CF987065307078FF005F07F80E4FD3392D28008A2D21E
:20024D00ED13FDEF13FFD5F0F5EF4EF72274C8250B500122E50BFF24C0402AEFC423541F1E
:20026D00240CF987065307078FF005F07F80E4FD3392D28008A2D2ED13FDEF13FFD5F0F5BB
:20028D00EFF4FF5EF7AF0B74082FF50BE50BFF24C04028EFC423541F240CF987065307071A
:2002AD008FF005F07F80E4FD3392D28008A2D2ED13FDEF13FFD5F0F5EF4EF722E50B5407F1
:2002CD006002804A300046E50BFF24C0402AEFC423541F240CF987065307078FF005F07FDF
:2002ED0080E4FD3392D28008A2D2ED13FDEF13FFD5F0F5EFF4FF5EF7E50BC423541FFF9035
:20030D0007A6E4934FF58212015A750B6422E50BFF24C0402AEFC423541F240CF9870653E4
:20032D0007078FF005F07F80E4FD3392D28008A2D2ED13FDEF13FFD5F0F5EFF4FF5EF715B7
:20034D000BE50BFF24C04028EFC423541F240CF987065307078FF005F07F80E4FD3392D2FF
:20036D008008A2D2ED13FDEF13FFD5F0F5EF4EF722AE0B5306077F00BE074DBF004A200093
:20038D0046E50BFF24C0402AEFC423541F240CF987065307078FF005F07F80E4FD3392D282
:2003AD008008A2D2ED13FDEF13FFD5F0F5EFF4FF5EF7E50BC423541FFF9007A5E4934FF505
:2003CD008212015A750B6422E50BFF24C0402AEFC423541F240CF987065307078FF005F00A
:2003ED007F80E4FD3392D28008A2D2ED13FDEF13FFD5F0F5EFF4FF5EF7050BE50BFF24C0AB
:20040D004028EFC423541F240CF987065307078FF005F07F80E4FD3392D28008A2D2ED1320
:20042D00FDEF13FFD5F0F5EF4EF7229007A5E493FF550A603ED200E50A6207EFC40354F8C6
:20044D00F50BE50BFF24C0500122EFC423541F240CF987065307078FF005F07F80E4FD3362
:20046D0092D28008A2D2ED13FDEF13FFD5F0F5EF4EF7229007A6E493FF550A603FC200E5A9
:20048D000A6207EFC40354F82407F50BE50BFF24C0402FEFC423541F240CF987065307070D
:2004AD008FF005F07F80E4FD3392D28008A2D2ED13FDEF13FFD5F0F5EF4EF722850A140295
:2004CD0001B722C200750B0012013F7590FFC2932097083097FD7F01020593209608309627
:2004ED00FD7F050205932095083095FD7F090205932094083094FD7F0D0205937590FFC2CA
:20050D00922097083097FD7F020205932096073096FD7F0680702095073095FD7F0A8066BC
:20052D002094073094FD7F0E805C7590FFC2912097073097FD7F03804D2096073096FD7FA2
:20054D000780432095073095FD7F0B80392094073094FD7F0F802F7590FFC2902097073006
:20056D0097FD7F0480202096073096FD7F0880162095073095FD7F0C800C2094073094FD09
:20058D007F1080027F00EFF51460031201B77F00BF080040030204D8EF240CF987158FF0FF
:2005AD0005F07C80E4FD3392D28008A2D2ED13FDEC13FCD5F0F57B00BB0800502B8BF005DE
:2005CD00F07A80E4FE3392D28008A2D2EE13FEEA13FAD5F0F5EC5202ED5206EA4E24FF928D
:2005ED00B4D2B6C2B60B80D07580FFD2B5C2B5E515F4F5807E00BE050050030E80F80F80E1
:01060D008F5D
:0C079B003F065B4F666D7D077F6F2040BE
:20060E00F9E51645174518451960777800C308E51920E73BE51625E0F516E51733F517E53C
:20062E001833F518E51933F519E5829516E5839517E5F09518E9951950D4C3E51913F519D0
:20064E00E51813F518E51713F517E51613F516E5829516FCE5839517FDE5F09518FEE9951E
:20066E00194007F98EF08D838C82C3E51913F519E51813F518E51713F517E51613F516D86C
:03068E00CEE92290
:20069100FB7A20E4FCFDFEFFE5822582F582E58333F583E5F033F5F0EB33FB4017DAE980A2
:2006B10042E5822582F582E58333F583E5F033F5F0EB33FBEC33FCED33FDEE33FEEF33FFD1
:2006D100EC9516ED9517EE9518EF95194013EC9516FCED9517FDEE9518FEEF9519FF43822B
:0506F10001DABEEB225E
:06005800E478FFF6D8FD7C
:200036007900E94400601B7A009007A7780175A000E493F2A308B8000205A0D9F4DAF275C2
:02005600A0FF09
:20005E007800E84400600A790175A000E4F309D8FC7800E84400600C7900900001E4F0A3A0
:04007E00D8FCD9FAD7
:2006F600F9C2D530E715D2D5E4C39582F582E49583F583E495F0F5F0E499F9E51930E715EA
:20071600E4C39516F516E49517F517E49518F518E49519F519E912060E30D512E4C39582A8
:0F073600F582E49583F583E495F0F5F0E49922DC
:20074500FBC2D530E715D2D5E4C39582F582E49583F583E495F0F5F0E49BFBE51930E71792
:20076500B2D5E4C39516F516E49517F517E49518F518E49519F519EB12069130D513FBE42B
:12078500C39582F582E49583F583E495F0F5F0E49B22AE
:0D002900758121120797E582600302002611
:040797007582002245
:00000001FF
