:04000000020029329F
:01000B0032C2
:0100130032BA
:01001B0032B2
:0300230002015582
:06008200750B410200268F
:0300260002021DB6
:20008800AC82AD83AEF0FFEC4D4E4F7017F58053A0E390041DE493F5807B00BB640050032B
:2000A8000B80F822750900EF30E710750901C3E49CFCE49DFDE49EFEE49FFF750800EC4D0B
:2000C8004E4F605A75150AE4F516F517F5188C828D838EF0EFC007C006C005C004120378F7
:2000E800A882D004D005D006D007AB08050875800053A0E3EB2B25E042A0E890041D93F5CF
:200108008075150AE4F516F517F5188C828D838EF0EF1203C7AC82AD83AEF0FF80A0E5094B
:20012800600F758000E508FA25E025E0F5A07580402253890F438920758DFD758BFDC2AB36
:20014800D28EC29FD29ED2ACD2AFD29C22C020C0E0C0F0C082C083C007C006C005C004C04C
:2001680003C002C001C000C0D075D00075A01030980DE599F4F5A085990A1201A4C298D052
:20018800D0D000D001D002D003D004D005D006D007D083D082D0F0D0E0D02032747FB50A02
:2001A80001227441B50A16E50BFF24C0400BEFC423541FFF240CF87600750B4122E50A2490
:2001C800B95007E50A24BAF50A22E50BB50A0122E50BFF24C0400BEFC423541FFF240CF8B9
:2001E8007600850A0BE50BFF24C04028EFC423541F240CF987065307078FF005F07F80E4F5
:20020800FD3392D28008A2D2ED13FDEF13FFD5F0F5EF4EF72212013A7F00BF080050F9EF6D
:20022800240CF987148FF005F07C80E4FD3392D28008A2D2ED13FDEC13FCD5F0F57B00BB26
:200248000800502B8BF005F07A80E4FE3392D28008A2D2EE13FEEA13FAD5F0F5EC5202ED57
:200268005206EA4E24FF92B4D2B6C2B60B80D07580FFD2B5C2B5E514F4F5807E00BE05008D
:0802880050030E80F80F809274
:0A041D003F065B4F666D7D077F6FA1
:20029000F9E51545164517451860777800C308E51820E73BE51525E0F515E51633F516E5C7
:2002B0001733F517E51833F518E5829515E5839516E5F09517E9951850D4C3E51813F5185C
:2002D000E51713F517E51613F516E51513F515E5829515FCE5839516FDE5F09517FEE995A9
:2002F000184007F98EF08D838C82C3E51813F518E51713F517E51613F516E51513F515D8F7
:03031000CEE92211
:20031300FB7A20E4FCFDFEFFE5822582F582E58333F583E5F033F5F0EB33FB4017DAE98023
:2003330042E5822582F582E58333F583E5F033F5F0EB33FBEC33FCED33FDEE33FEEF33FF52
:20035300EC9515ED9516EE9517EF95184013EC9515FCED9516FDEE9517FEEF9518FF4382B4
:0503730001DABEEB22DF
:06005800E478FFF6D8FD7C
:200036007900E94400601B7A00900427780175A000E493F2A308B8000205A0D9F4DAF27545
:02005600A0FF09
:20005E007800E84400600A790175A000E4F309D8FC7800E84400600C7900900001E4F0A3A0
:04007E00D8FCD9FAD7
:20037800F9C2D530E715D2D5E4C39582F582E49583F583E495F0F5F0E499F9E51830E7156C
:20039800E4C39515F515E49516F516E49517F517E49518F518E912029030D512E4C39582B4
:0F03B800F582E49583F583E495F0F5F0E499225E
:2003C700FBC2D530E715D2D5E4C39582F582E49583F583E495F0F5F0E49BFBE51830E71715
:2003E700B2D5E4C39515F515E49516F516E49517F517E49518F518EB12031330D513FBE436
:12040700C39582F582E49583F583E495F0F5F0E49B222F
:0D002900758120120419E582600302002693
:0404190075820022C6
:00000001FF
