:0400000002002132A7
:01000B0032C2
:0100130032BA
:03001B00020909CE
:1A007A00E4F524F525F526F527F528F529F52A752B3D752C01F5357557014E
:03009F0002001E3E
:03001E00020A2FA4
:2000A200AC82AD83AEF0FFEC4D4E4F7017F58053A0E3900FFEE493F5807B00BB6400500325
:2000C2000B80F822752300EF30E710752301C3E49CFCE49DFDE49EFEE49FFF752200EC4DA3
:2000E2004E4F605A750C0AE4F50DF50EF50F8C828D838EF0EFC007C006C005C004120EEB83
:20010200A882D004D005D006D007AB22052275800053A0E3EB2B25E042A0E8900FFE93F594
:2001220080750C0AE4F50DF50EF50F8C828D838EF0EF120F3AAC82AD83AEF0FF80A0E523BC
:20014200600F758000E522FA25E025E0F5A075804022C2AF7E007F00C3EE94C8EF64809460
:20016200805037D2957C007D00C3EC945AED6480948050070CBC00F10D80EEC2957C007DB9
:2001820000C3EC945AED6480948050070CBC00F10D80EE0EBE00C10F80BE7F00BF080050E0
:2001A20009EF242DF876000F80F2120D90750C06750D00120F8CAE82AF838E49E52A24FD37
:2001C2004003020365E54975F008A42408FD741035F0FF754A00754B00E54B242DF551E535
:2001E2004BFA3395E0FEE54AF5523395E0F553E5522AF582E5533EF583750C08750D00C01B
:2002020007C006C005C002120F8CAB82AC83D002D005D006D007EB2DF582EC3FF583E49382
:20022200FC5304F0EAC39552FAEE9553FE74082AF582E43EF583750C08750D00C007C005C9
:20024200C004120F8CAB82AE83D004D005D007EB2DF582EE3FF583E493FE740F5E4CA8517E
:20026200F6054BC3E54B6480948850030201DB754C0075A0FF7580FF7C00BC08005071EC5C
:20028200242DF9874D8CF005F0755280E4F5533392D2800CA2D2E55313F553E55213F5529F
:2002A200D5F0F17A00BA0800502D8AF005F07B80E4FE3392D28008A2D2EE13FEEB13FBD521
:2002C200F0F5E5525203E5535206EB4E24FF92B4D2B6C2B60A80CE7580FFD2B5C2B5E54DFD
:2002E200F4F5807E00BE050050030E80F80C808A7E64DEFEC2B47E00D2B6C2B60EBE0800DD
:2003020040F6D2B5C2B5AA2A7B007C007E008A828B838CF0EEC007C0051200A2AA2A7B004B
:200322007C007E008A828B838CF0EE1200A2AA2A7B007C007E008A828B838CF0EE1200A208
:20034200D005D007054CC3E54C6480949E5003020274054AC3E54A6480948850030201D85A
:200362000201C7E54975F008A42408FE741035F0FF8E048F05754A007410C3954AFA754BDB
:2003820000C002E54AF5523395E0F553E54BF5543395E0F555E5542552FAE5553553FBC39E
:2003A200EA9408EB64809480D0025024E54B242DF9E54A254B2CF582E43DF583E493FB8540
:2003C2004AF005F0EB8002C313D5F0FBF7020468C002E5542552FAE5553553FBC3EA94100A
:2003E200EB64809480D0024076C002E5542552FAE5553553FBC3EA9410EB64809480D00261
:200402004054C004C005E54B242DF9E5542552F582E5553553F583750C08750D00C007C050
:2004220006C004C002C001120F8CAB82AD83D001D002D004D006D007EB2EF582ED3FF5830B
:20044200E493FD8AF005F0ED800225E0D5F0FBF7D005D0048010E54B242DF876008007E5F8
:200462004B242DF87600054BC3E54B648094885003020383754C1E75A0FF7580FF754E00A8
:2004820074F8254E4078E54E242DF9874F854EF005F0755480E4F5553392D2800CA2D2E5C5
:2004A2005513F555E55413F554D5F0F175500074F82550402F8550F005F07A80E4FB3392D0
:2004C200D28008A2D2EB13FBEA13FAD5F0F5E5545202E5555203EA4B24FF92B4D2B6C2B6E8
:2004E200055080CB7580FFD2B5C2B5E54FF4F5807B00BB050050030B80F8054E80827B6486
:20050200DBFEC2B47B00D2B6C2B60BBB080040F6C004C005D2B5C2B5AA2A7B007C007D003C
:200522008A828B838CF0EDC007C006C005C0041200A2D004D005AA2A7B007C007D008A826F
:200542008B838CF0EDC005C0041200A2D004D005AA2A7B007C007D008A828B838CF0EDC0B1
:2005620005C0041200A2D004D005D006D007154CD005D004E54C6003020479054AC3E54A48
:2005820064809490500302037A020365AF2B7E008E5674C025564068E556C423541F242D9C
:2005A200F9870474075556FB8BF005F07B80E4FA3392D28008A2D2EA13FAEB13FBD5F0F50E
:2005C2007D00EC5203ED5202EB4AB40100B392004028C007C006120D90D006D0078F0C758A
:2005E2000D00C007C006120F8CE5828583F0D006D00745F070038E38221F0556AE56809286
:2006020022E538B53602804BAE367F00750C088F0D8E828F83C007C006120FC2AC82D006C3
:20062200D007EC242DF987055306077F008EF005F07E80E43392D28008A2D2EF13FFEE1356
:20064200FED5F0F57C00ED5206EC5207EE4F6003120154E536FFC423541F242DF987065335
:2006620007078FF005F07F80E4FD3392D28008A2D2ED13FDEF13FFD5F0F5EF4EF7E538B5C5
:200682003632052A12058EE538FFC423541F242DF987065307078FF005F07F80E4FD339255
:2006A200D28008A2D2ED13FDEF13FFD5F0F5EF4EF7152B22E537FFC423541F242DF98706D0
:2006C2005307078FF005F07F80E4FD3392D28008A2D2ED13FDEF13FFD5F0F5EFF45EF7AF31
:2006E2003774075FFE8EF005F07E80E4FD3392D28008A2D2ED13FDEE13FED5F0F5EFC42378
:20070200541FFF2441F98705EE5205EDB40100B39201E43325E0FDEF2439F9E75206EEB40F
:200722000100B39201E433FFED4207EF24FC4022EF2F90073873800680078008800D1537E5
:2007420022053722E53724F8F53722AF3774082FF5372274F8253640031201547403B52CE9
:200762000122AF368F0674075FFD8DF005F07D80E4FC3392D28008A2D2EC13FCED13FDD554
:20078200F0F5EFC423541F2441F98707EDF45FF7EEC423541FFE2441F98707ED4FF7EE248F
:2007A20039F98707EDF45FF7E53624F8F536752C0202060374C8253650031201547402B5B4
:2007C2002C0122AF368F0674075FFD8DF005F07D80E4FC3392D28008A2D2EC13FCED13FD9D
:2007E200D5F0F5EFC423541F2441F98707EDF45FF7EEC423541FFE2441F98707ED4FF7EE7E
:200802002439F98707EDF45FF78707ED4FF7AF3674082FF536752C03020603E536540760BA
:200822000280031201547401B52C0122AF368F0674075FFD8DF005F07D80E4FC3392D2809A
:2008420008A2D2EC13FCED13FDD5F0F5EFC423541F2441F98707EDF45FF7EEC423541F2490
:2008620039F98707EDF45FF71536752C0002060374075536FE7F00BE0706BF000312015411
:20088200E52C700122AF368F0674075FFD8DF005F07D80E4FC3392D28008A2D2EC13FCED97
:2008A20013FDD5F0F5EFC423541F2441F98707EDF45FF7EEC423541F2439F98707EDF45F94
:2008C200F78707ED4FF70536752C01020603758D4B758BFF221208D07528F97529FF740275
:2008E200B5350280157405B5350280147406B53502800A7407B5350E80090207550207B673
:2009020002081D02087222C021C0E0C0F0C082C083C007C006C005C004C003C002C001C03E
:2009220000C0D075D0000524E4B5240C0525B525070526B5260205271208D00528E4B528D7
:20094200020529750C03E4F50DF50EF50F8524828525838526F0E527120D0DAC82AD83AEBD
:20096200F0FFEC4D4E4F7062E5576031E538FFC423541F242DF987065307078FF005F07F70
:2009820080E4FD3392D28008A2D2ED13FDEF13FFD5F0F5EFF4FF5EF7755700802DE538FFDD
:2009A200C423541F242DF987065307078FF005F07F80E4FD3392D28008A2D2ED13FDEF13BD
:2009C200FFD5F0F5EF4EF7755701750C0A750D00852882852983120F8CE5828583F045F0AD
:2009E200702EE52C24FC4028E52C75F003A49009F473020A0A020A0F020A00020A0512073A
:200A020055800D1207B6800812081D8003120872D0D0D000D001D002D003D004D005D006F0
:200A2200D007D083D082D0F0D0E0D02132D288D2A8D2AF758912758D4B758BFFD2AB12085D
:200A4200D0D28E7590FFC2932097083097FD7F01020B002096083096FD7F05020B00209534
:200A6200083095FD7F09020B002094083094FD7F0D020B007590FFC2922097083097FD7FA5
:200A820002020B002096073096FD7F0680702095073095FD7F0A80662094073094FD7F0E5A
:200AA200805C7590FFC2912097073097FD7F03804D2096073096FD7F0780432095073095E6
:200AC200FD7F0B80392094073094FD7F0F802F7590FFC2902097073097FD7F04802020966A
:200AE200073096FD7F0880162095073095FD7F0C800C2094073094FD7F1080027F00EF700D
:200B020003020A45852482852583120DFC758000C2B6C2B5752DE0753602747F5541F5413A
:200B2200747F5539F53974804539F53974BF5541F54174BF5539F53974404539F53974DFC3
:200B42005541F54174DF5539F53974204539F53975370012058EE538FFC423541F242DF967
:200B620087065307078FF005F07F80E4FD3392D28008A2D2ED13FDEF13FFD5F0F5EF4EF7B2
:200B820075A0FF7580FF7F00BF08005069EF242DF987588FF005F07C80E4FD3392D28008C4
:200BA200A2D2ED13FDEC13FCD5F0F57B00BB0800502B8BF005F07A80E4FE3392D28008A247
:200BC200D2EE13FEEA13FAD5F0F5EC5202ED5206EA4E24FF92B4D2B6C2B60B80D07580FF1C
:200BE200D2B5C2B5E558F4F5807E00BE050050030E80F80F80927F64DFFEC2B47F00D2B6D7
:200C0200C2B60FBF080040F6D2B5C2B5AC2A7D007E007F008C828D838EF0EF1200A2AC2AEB
:200C22007D007E007F008C828D838EF0EF1200A2AC2A7D007E007F008C828D838EF0EF120C
:200C420000A27590FFC2932097083097FD7F01020CFF2096083096FD7F05020CFF209508B8
:200C62003095FD7F09020CFF2094083094FD7F0D020CFF7590FFC2922097083097FD7F02A9
:200C8200020CFF2096073096FD7F0680702095073095FD7F0A80662094073094FD7F0E80DA
:200CA2005C7590FFC2912097073097FD7F03804D2096073096FD7F0780432095073095FD67
:200CC2007F0B80392094073094FD7F0F802F7590FFC2902097073097FD7F0480202096075E
:200CE2003096FD7F0880162095073095FD7F0C800C2094073094FD7F1080027F00EFF53558
:0B0D02007003020B821208D7020B8264
:200FFE003F065B4F666D7D077F6F8142241818244281183C7EFFFF7E3C180066FFFF7E3CE1
:20101E0018003C4281A58199423C3C4281818181423C605050101010101F000000000000FF
:20103E00000000000000000000000000000000000000000000000000000000000000000092
:20105E000000000000000000000000000000000018180000001818000000000018180000E2
:20107E00000024008118188100240024008181002400240081000081002400240000000020
:20109E00240000002400002400000000002424000000000000000024240000000000000036
:0210BE00000030
:200D0D00F9E50C450D450E450F60777800C308E50F20E73BE50C25E0F50CE50D33F50DE590
:200D2D000E33F50EE50F33F50FE582950CE583950DE5F0950EE9950F50D4C3E50F13F50F2E
:200D4D00E50E13F50EE50D13F50DE50C13F50CE582950CFCE583950DFDE5F0950EFEE99572
:200D6D000F4007F98EF08D838C82C3E50F13F50FE50E13F50EE50D13F50DE50C13F50CD8C0
:030D8D00CEE9228A
:0B009400750801E4F509F50A750B8002
:200D9000AC08AD09AE0AAF0B8D00EEC313C813C8C313C813C8F9EF030354C049F9EF0303C1
:200DB000543FFA7B00EC6200ED6201EE6202EF6203E828FDE933FEEA33FF7C00E86204E9E1
:200DD0006205EA6206EB6207EFC313F8E4F9FAFBE86204E96205EA6206EB62078C088D09F9
:200DF0008E0A8F0B8C82747F5DF58322AE82AF837D007C008E088F098D0A74804CF50B2237
:200E1000FB7A20E4FCFDFEFFE5822582F582E58333F583E5F033F5F0EB33FB4017DAE9801B
:200E300042E5822582F582E58333F583E5F033F5F0EB33FBEC33FCED33FDEE33FEEF33FF4A
:200E5000EC950CED950DEE950EEF950F4013EC950CFCED950DFDEE950EFEEF950FFF4382F4
:050E700001DABEEB22D7
:06005000E478FFF6D8FD84
:20002E007900E94400601B7A009010C0780175A000E493F2A308B8000205A0D9F4DAF275A8
:02004E00A0FF11
:200E7500E50C450D60467A01E50C25E0F50CE50D334012F50DE582950CE583950D40030A2A
:200E950080E6C3E50D13F50DE50C13F50CC3E582950CF5F0E583950D4005F58385F082C3D7
:0D0EB500E50D13F50DE50C13F50CDAE12247
:200056007800E84400600A790175A000E4F309D8FC7800E84400600C7900900001E4F0A3A8
:04007600D8FCD9FADF
:200EC2007A10E4FBFCE58225E0F582E58333F583EB33FBEC33FCEB950CF5F0EC950D40063C
:090EE200FCABF0438201DADD22D1
:200EEB00F9C2D530E715D2D5E4C39582F582E49583F583E495F0F5F0E499F9E50F30E715F7
:200F0B00E4C3950CF50CE4950DF50DE4950EF50EE4950FF50FE9120D0D30D512E4C39582F5
:0F0F2B00F582E49583F583E495F0F5F0E49922DF
:200F3A00FBC2D530E715D2D5E4C39582F582E49583F583E495F0F5F0E49BFBE50F30E7179F
:200F5A00B2D5E4C3950CF50CE4950DF50DE4950EF50EE4950FF50FEB120E1030D513FBE4F7
:120F7A00C39582F582E49583F583E495F0F5F0E49B22B1
:0D002100758158120FFAE582600302001E7F
:200F8C00C2D5E58330E70DD2D5E4C39582F582E49583F583E50D30E70BE4C3950CF50CE491
:160FAC00950DF50D120E7530D50BE4C39582F582E49583F583221B
:200FC200C2D5E58330E70DD2D5E4C39582F582E49583F583E50D30E70DB2D5E4C3950CF5C2
:180FE2000CE4950DF50D120EC230D50BE4C39582F582E49583F58322A6
:040FFA0075820022DA
:00000001FF
