:0600000002002302064C81
:03000B000208AD3B
:03001300020AECF2
:03001B000208C810
:20007C00E4F524F525F526F527F52CF52DF52EF52FF530F531F5327533F07534D87535FF58
:20009C007536FFF537F5387539F0753AD8753BFF753CFFF54D754E32F555F556F557F55858
:0F00BC00F55FF560F561F562F563F56402001E0E
:03001E00020B2BA7
:2000CB00AC82AD83AEF0FFEC4D4E4F7017F58053A0E390142BE493F5807B00BB64005003CA
:2000EB000B80F822752300EF30E710752301C3E49CFCE49DFDE49EFEE49FFF752200EC4D7A
:20010B004E4F605A75080AE4F509F50AF50B8C828D838EF0EFC007C006C005C00412131C33
:20012B00A882D004D005D006D007AB22052275800053A0E3EB2B25E042A0E890142B93F539
:20014B008075080AE4F509F50AF50B8C828D838EF0EF12136BAC82AD83AEF0FF80A0E5236E
:20016B00600F758000E522FA25E025E0F5A075804022858280C2A6C2A5D2A77F00BF6400A8
:20018B0050030F80F8C2A77F00BF640050030F80F8D2A72275823812017D75820E12017DA6
:2001AB0075820112017D75828002017D858280D2A6C2A5D2A77F00BF0A0050030F80F8C2F2
:2001CB00A77F00BF640050030F80F8D2A722AD82AE83AFF08D828E838FF01213D5FC60184A
:2001EB008C820DBD00010EC007C006C0051201B7D005D006D00780DC22D2B7C2B77FF78FEA
:20020B00061FEE70FAD2B77F208F061FEE70FAA2B7E433FF7EF78E051EED70FA8F8222AF54
:20022B0082C2B77E048E051EED70FAEF24FF92B77F188F061FEE70FAD2B722C2B77F028FFC
:20024B00061FEE70FAD2B77F028F061FEE70FAA2B7E433FF7E188E051EED70FA8F8222AF11
:20026B00827E00BE080050338EF005F07C017D008006EC2CFCED33FDD5F0F78F027B00EA54
:20028B005204EB5205EC4D24FFE433F582C007C00612022AD006D0070E80C8227F007E00E4
:2002AB00BE0800501EC007C006120246E582D006D0078EF005F0800225E0D5F0FBFD420704
:2002CB000E80DD8F82221202047582CC12026A75824402026A1202D11202047582CC12029F
:2002EB006A7582BE12026A1202A7AF82C0071202A7AE82D0078F05E4FFFCEE4207EC420504
:20030B008FF005F0850782850583ED3392D2800CA2D2E58313F583E58213F582D5F0F12203
:20032B007E007F00C3EE94C8EF648094805037D2957C007D00C3EC945AED64809480500701
:20034B000CBC00F10D80EEC2957C007D00C3EC945AED6480948050070CBC00F10D80EE0EF3
:20036B00BE00C10F80BE2212032B752801D2A02212032B752800C2A022E5286003D2A022AD
:20038B00C2A022E54D600B154DE54D243DF8760080F1754E327582C012017D7E007F00C361
:2003AB00EE9410EF648094805015758220C007C0061201B7D006D0070EBE00E30F80E075A6
:2003CB0082C002017DE54D600B154DE54D243DF8760080F175828012017D7E007F00C3EE2A
:2003EB009410EF648094805015758220C007C0061201B7D006D0070EBE00E30F80E07582D2
:20040B008002017DE582FFB54E0280097410B54D04754E3222EFB54E028003020550E54F3A
:20042B007003020550758210C00712017DD007154DE54D243DF98706BE20028003EE702D49
:20044B0074F0254D4025EF75F008A42435FD741435F0FE8D828E83E493F78D828E83E49330
:20046B00F582C0071201B7D007054D8F4E755100EF75F008A4F55385F0542435FAE55434CC
:20048B0014FB755000E5502AFDE43BFE8D828E83E493700122C002C003E5532435FBE55490
:2004AB003414FEE5502BF582E43EF583E54D243DF552A8528606E493FBB506028006D00392
:2004CB00D0028079D003D002E5532435FDE5543414FEE551FC042DFDE43EFE8D828E83E410
:2004EB0093603174F0254D500122E5532435FDE5543414FEEC042DFDE43EFE8D828E83E439
:20050B0093FCA852A6048D828E83E493F5821201B7054D2274F0254D405DE5532435FDE56B
:20052B00543414FE8D828E83E493FCA852A6048D828E83E493F5821201B7054D22055085B9
:20054B00505102049074F0254D402AE54D243DF9EF75F008A42435FD741435F0FE8D828EEF
:20056B0083E493F78D828E83E493F582C0071201B7D007054D8F4E22754E32E54D700122FE
:20058B0075821012017D154DE54D243DF876007582201201B775821002017D754E3274F095
:2005AB00254D400FE54D243DF876207582201201B7054D22E52D2429F98707BF3D02802D68
:2005CB00BF5702801EBF5D02800FBF6F02800FBFDD02801EBFFD20800F120C3E804B12030B
:2005EB00D0804612038E8041120583803C1205A68037120D9A80327E007D00ED24F6402956
:20060B00ED90149593FCEFB5041AAC2D8CF005F07401800225E0D5F0FB552BF54F8E82126C
:20062B00040F80050D8D0680D2AE2D7F008E828F83A37508028F091213F1AE828E2D152EAB
:20064B0022C021C0E0C0F0C082C083C007C006C005C004C003C002C001C000C0D075D000C6
:20066B00E52FC39533FCE5309534FDE5319535FEE5329536FFC374C89CE49DE49E74808F19
:20068B00F063F08095F0500F852F338530348531358532360207B5C3EC9405ED9400EE94F7
:2006AB0000EF6480948050030207B5852F33853034853135853236C374649CE49DE49E74E1
:2006CB00808FF063F08095F050097537007538000207B5053874E825385026C374119CE414
:2006EB009DE49E74808FF063F08095F0500CE5372537FF74014FF5378007E537FF25E0F5A6
:20070B00377420B5380280030207B5E52C2429F8A637AF2C8FF005F07401800225E0D5F090
:20072B00FB522BE52FC39539FBE530953AFCE531953BFDE532953CFE75080AE4F509F50A85
:20074B00F50B8B828C838DF0EEC00712136BAB82AC83ADF0FED007C374209B74039CE49D5C
:20076B0074808EF063F08095F0920040067D017E0080047D007E008FF005F0ED800225E069
:20078B00D5F0FB422B852F3985303A85313B85323CAE2C7F008E828F83A37508028F09121A
:2007AB0013F1AE82AF838E2C052ED0D0D000D001D002D003D004D005D006D007D083D082FA
:2007CB00D0F0D0E0D02132758D4B758BFF22C28E22E4F555F5561207D2D28E2275081475AF
:2007EB0009008555828556831212CFE5828583F045F07035C3E49524E49525E4952674806E
:20080B008527F063F08095F0400C1207D912032BE4F557F55822152474FFB5240C1525B53C
:20082B0025071526B526021527227508147509008555828556831212CFE5828583F045F0BB
:20084B0070120524E4B5240C0525B525070526B52602052722750814750900855582855672
:20086B00831212CFE5828583F045F07034C3E49524E49525E4952674808527F063F080952A
:20088B00F0400B12037BE4F557F5580207D9152474FFB5240C1525B525071526B52602154A
:2008AB002722C0E0C0D0052FE4B52F0C0530B530070531B531020532D0D0D0E032C021C013
:2008CB00E0C0F0C082C083C007C006C005C004C003C002C001C000C0D075D0000555E4B514
:2008EB00550205561207D2E55745586009855782855883120021D0D0D000D001D002D00337
:20090B00D004D005D006D007D083D082D0F0D0E0D021327402B5640280227403B5640280F9
:20092B001E7404B56402800E7408B56402800A7410B56411800C0203D002038E020583021E
:20094B0005A6020D9AE52FC3955FFCE5309560FDE5319561FEE5329562FFC374409C741FAD
:20096B009DE49E74808FF063F08095F05003020A37E564B563028003020A37E56424F05016
:20098B0003020ADCE564240B83F582E564241483F583E473DCBFDCDCDCCBD7E3DCEFFB079B
:2009AB00DC131F2B0A090A0A0A0909090A09090A0A0A0A0A754F0175820012040F020ADC90
:2009CB00754F0175820112040F020ADC754F0175820212040F020ADC754F017582031204A2
:2009EB000F020ADC754F0175820412040F020ADC754F0175820512040F020ADC754F017520
:200A0B00820612040F020ADC754F0175820712040F020ADC754F0175820812040F020ADC95
:200A2B00754F0175820912040F020ADCE56424F05003020ADCE564240B83F582E56424144E
:200A4B0083F583E473DC70DCDCDC7B8691DC9CA7B2DCBDC8D30A0A0A0A0A0A0A0A0A0A0A54
:200A6B000A0A0A0A0A754F0075820012040F8061754F0075820112040F8056754F00758206
:200A8B000212040F804B754F0075820312040F8040754F0075820412040F8035754F0075E4
:200AAB00820512040F802A754F0075820612040F801F754F0075820712040F8014754F0011
:200ACB0075820812040F8009754F0075820912040F852F5F853060853161853262856463D1
:200AEB0022C021C0E0C0F0C082C083C007C006C005C004C003C002C001C000C0D075D00022
:200B0B00120372D0D0D000D001D002D003D004D005D006D007D083D082D0F0D0E0D02132CF
:200B2B00D2AAD28A1202D1D288D2A8D2AF758912758CA4858C8AD2A9D28CC28D758D4B755E
:200B4B008BFFD2AB75A00075800012019F75828012017D1203848524828525838526F0E54F
:200B6B00271200CB7590FFC2932097083097FD7F01020C2A2096083096FD7F05020C2A2075
:200B8B0095083095FD7F09020C2A2094083094FD7F0D020C2A7590FFC2922097083097FD0F
:200BAB007F02020C2A2096073096FD7F0680702095073095FD7F0A80662094073094FD7F94
:200BCB000E805C7590FFC2912097073097FD7F03804D2096073096FD7F0780432095073043
:200BEB0095FD7F0B80392094073094FD7F0F802F7590FFC2902097073097FD7F0480202041
:200C0B0096073096FD7F0880162095073095FD7F0C800C2094073094FD7F1080027F00EFBC
:200C2B00F564600312091EE52E7003020B5E1205BF80F4E4F557F5581207D9E4F524F525F3
:200C4B00F526F527E54D600B154DE54D243DF8760080F1754E3202019FAD82AE83AFF0E467
:200C6B00F524F525F526F527ED4E7001220DBD00010EE52B30E303632B088D828E838FF0FD
:200C8B001213D5FC601BBC2B028016BC2D028011EC24C64005BC300050070DBD00DC0E804B
:200CAB00D98D028E038F048D828E838FF01213D5F9B92D0E432B0874012DFAE43EFB8F0455
:200CCB00800CB92B0974012DFAE43EFB8F048A058B068C078D828E838FF01213D5FC700389
:200CEB00020D7F85260AE527C40354F8C50AC403C50A650AC50A54F8C50A650AF50BE52550
:200D0B00C4035407450AF50A852408E525C40354F8C508C403C5086508C50854F8C5086571
:200D2B0008F509E5242524F8E52533F9E52633FAE52733FBE82508F508E93509F509EA355A
:200D4B000AF50AEB350BF50B6304308C037C008B01ECFA3395E0FBFCE92508F524EA35094A
:200D6B00F525EB350AF526EC350BF5270DBD00010E020CDFE52B30E315C3E49524F524E466
:200D8B009525F525E49526F526E49527F527229014C675F0801213BD85820B85830C750808
:200DAB00C6750914750A8090003D75F04012121BE5828583F045F0700512032B802C901487
:200DCB00CD75F0801213BD85820B85830C7508CD750914750A8090003D75F04012121BE5DD
:200DEB00828583F045F07002F5809014D575F0801213BD85820B85830C7508D57509147593
:200E0B000A8090003D75F04012121BE5828583F045F07015E54D600B154DE54D243DF87673
:200E2B000080F1754E3202019F90149F75F0801213BD85820B85830C7508DB750914750A06
:200E4B008090003D75F04012121BE5828583F045F0702290149F75F0801213BDAE82EE24E4
:200E6B003DFE7F007D407508208E828F838DF0121296020C649014A975F0801213BD85826D
:200E8B000B85830C7508A9750914750A8090003D75F04012121BE5828583F045F07022900A
:200EAB0014A975F0801213BDAE82EE243DFE7F007D407508208E828F838DF0121296020CE6
:200ECB00649014AE75F0801213BD85820B85830C7508AE750914750A8090003D75F0401224
:200EEB00121BE5828583F045F070409014AE75F0801213BDAE82EE243DFE7F007D40750827
:200F0B00208E828F838DF0121296AD82AE83AFF0E4F524F525F526F5278D828E838FF0124F
:200F2B000C647557E77558070207DC9014B875F0801213BD85820B85830C7508B8750914BA
:200F4B00750A8090003D75F04012121BE5828583F045F070409014B875F0801213BDAE823F
:200F6B00EE243DFE7F007D407508208E828F838DF0121296AD82AE83AFF0E4F524F525F5DC
:200F8B0026F5278D828E838FF0120C647557E77558070207DC9014E675F0801213BD85821F
:200FAB000B85830C7508E6750914750A8090003D75F04012121BE5828583F045F0700975E0
:200FCB0057357558080207DC9014BE75F0801213BD85820B85830C7508BE750914750A80A5
:200FEB0090003D75F04012121BE5828583F045F07045E5287001229014BE75F0801213BD23
:20100B00AE82EE243DFE7F007D407508208E828F838DF0121296AD82AE83AFF0E4F524F525
:20102B0025F526F5278D828E838FF0120C647557607558080207DC9014F075F0801213BDE7
:20104B0085820B85830C7508F0750914750A8090003D75F04012121BE5828583F045F070AC
:20106B005FE5286001221203729014BE75F0801213BDAE82EE243DFE7F007D407508208EE2
:20108B00828F838DF0121296AD82AE83AFF0E4F524F525F526F5278D828E838FF0120C640C
:2010AB00C3E49524E49525E4952674808527F063F08095F04001227557607558080207DC57
:2010CB009014F775F0801213BD85820B85830C7508F7750914750A8090003D75F0401212E2
:2010EB001BE5828583F045F0602A9014FC75F0801213BD85820B85830C7508FC750914759F
:20110B000A8090003D75F04012121BE5828583F045F070131202E0AE82AF838E24EFF52561
:08112B003395E0F526F52722BB
:20142B003F065B4F666D7D077F6F5F27303E000000002E2B2D2A2F5E3100616263320000B3
:20144B000000646566330000000067686934000000006A6B6C35000000006D6E6F360000BD
:20146B000000707172733700000074757638000000007778797A39000000000000000000B2
:20148B000000000000000000000097CFE785EFC7A5BDB5AD6C63642077726974650073689C
:2014AB006F7700636F756E74646F776E0074696D65720066616E206F66660062757A7A6579
:2014CB0072006C6564206F666600636C656172006C6564372077726974650073746F707704
:1D14EB00617463680066616E206F6E0074656D700074656D706572617475726500AE
:20113300F9E5084509450A450B60777800C308E50B20E73BE50825E0F508E50933F509E58A
:201153000A33F50AE50B33F50BE5829508E5839509E5F0950AE9950B50D4C3E50B13F50B2C
:20117300E50A13F50AE50913F509E50813F508E5829508FCE5839509FDE5F0950AFEE9956C
:201193000B4007F98EF08D838C82C3E50B13F50BE50A13F50AE50913F509E50813F508D8BA
:0311B300CEE92260
:2011B600FB7A20E4FCFDFEFFE5822582F582E58333F583E5F033F5F0EB33FB4017DAE98072
:2011D60042E5822582F582E58333F583E5F033F5F0EB33FBEC33FCED33FDEE33FEEF33FFA1
:2011F600EC9508ED9509EE950AEF950B4013EC9508FCED9509FDEE950AFEEF950BFF43826B
:0512160001DABEEB222D
:20121B00AD82AE83AFF0E50B450C700490000022AA08AB09AC0AA80BA90C18B8FF0119E8F8
:20123B004960368D828E838FF01213D5F50D6029C000C0018A828B838CF01213D5F9B50DC4
:20125B00028006D001D0008010D001D0000DBD00010E0ABA00C40B80C18D828E838FF012BB
:1B127B0013D5FD7F008A828B838CF01213D5FA7E00EDC39AF582EF9EF5832204
:06005200E478FFF6D8FD82
:200030007900E94400601B7A00901508780175A000E493F2A308B8000205A0D9F4DAF27559
:02005000A0FF0F
:20129600AD82AE83AFF08D828E838FF01213D5FC600DECB5080280070DBD00EA0E80E78D4F
:1912B600828E838FF01213D5B508078D828E838FF02290000075F0002277
:2012CF00E508450960467A01E50825E0F508E509334012F509E5829508E583950940030AEC
:2012EF0080E6C3E50913F509E50813F508C3E5829508F5F0E58395094005F58385F082C391
:0D130F00E50913F509E50813F508DAE122F8
:200058007800E84400600A790175A000E4F309D8FC7800E84400600C7900900001E4F0A3A6
:04007800D8FCD9FADD
:20131C00F9C2D530E715D2D5E4C39582F582E49583F583E495F0F5F0E499F9E50B30E715C5
:20133C00E4C39508F508E49509F509E4950AF50AE4950BF50BE912113330D512E4C39582B6
:0F135C00F582E49583F583E495F0F5F0E49922AA
:20136B00FBC2D530E715D2D5E4C39582F582E49583F583E495F0F5F0E49BFBE50B30E7176E
:20138B00B2D5E4C39508F508E49509F509E4950AF50AE4950BF50BEB1211B630D513FBE439
:1213AB00C39582F582E49583F583E495F0F5F0E49B227C
:02002100E47386
:1813BD00AA82AB831213D56003A380F8C3E5829AF582E5839BF583226E
:0D002300758164121427E582600302001E3F
:1C13D50020F71430F6148883A88220F507E6A88375830022E280F7E49322E02227
:2013F100C2D5E58330E70DD2D5E4C39582F582E49583F583E50930E70BE4C39508F508E434
:161411009509F5091212CF30D50BE4C39582F582E49583F583225B
:0414270075820022A8
:00000001FF
