:04000000020029329F
:03000B0002098C5B
:0100130032BA
:01001B0032B2
:030023000209309F
:1B008200E4F525F526F527F528F529F52AF52B752C3D752D01753614755801A6
:0300A8000200262D
:03002600020AB219
:2000AB00AC82AD83AEF0FFEC4D4E4F7017F58053A0E3900F02E493F5807B00BB6400500318
:2000CB000B80F822752300EF30E710752301C3E49CFCE49DFDE49EFEE49FFF752200EC4D9A
:2000EB004E4F605A750C0AE4F50DF50EF50F8C828D838EF0EFC007C006C005C004120DEF77
:20010B00A882D004D005D006D007AB22052275800053A0E3EB2B25E042A0E8900F0293F587
:20012B0080750C0AE4F50DF50EF50F8C828D838EF0EF120E3EAC82AD83AEF0FF80A0E523B0
:20014B00600F758000E522FA25E025E0F5A075804022C2AF7E007F00C3EE94C8EF64809457
:20016B00805037D2957C007D00C3EC945AED6480948050070CBC00F10D80EEC2957C007DB0
:20018B0000C3EC945AED6480948050070CBC00F10D80EE0EBE00C10F80BE7F00BF080050D7
:2001AB0009EF242EF876000F80F2120C94750C06750D00120E90AE82AF838E4AE52B24FD25
:2001CB00400302036EE54A75F008A4240CFD740F35F0FF754B00754C00E54C242EF552E51A
:2001EB004CFA3395E0FEE54BF5533395E0F554E5532AF582E5543EF583750C08750D00C00C
:20020B0007C006C005C002120E90AB82AC83D002D005D006D007EB2DF582EC3FF583E49376
:20022B00FC5304F0EAC39553FAEE9554FE74082AF582E43EF583750C08750D00C007C005BE
:20024B00C004120E90AB82AE83D004D005D007EB2DF582EE3FF583E493FE740F5E4CA85271
:20026B00F6054CC3E54C6480948850030201E4754D0075A0FF7580FF7C00BC08005071EC47
:20028B00242EF9874E8CF005F0755380E4F5543392D2800CA2D2E55413F554E55313F5538E
:2002AB00D5F0F17A00BA0800502D8AF005F07B80E4FE3392D28008A2D2EE13FEEB13FBD518
:2002CB00F0F5E5535203E5545206EB4E24FF92B4D2B6C2B60A80CE7580FFD2B5C2B5E54EF1
:2002EB00F4F5807E00BE050050030E80F80C808A7E64DEFEC2B47E00D2B6C2B60EBE0800D4
:20030B0040F6D2B5C2B5AA2B7B007C007E008A828B838CF0EEC007C0051200ABAA2B7B0037
:20032B007C007E008A828B838CF0EE1200ABAA2B7B007C007E008A828B838CF0EE1200ABEC
:20034B00D005D007054DC3E54D6480949E500302027D054BC3E54B6480948850030201E13B
:20036B000201D0E54A75F008A4240CFE740F35F0FF8E048F05754B007410C3954BFA754CC2
:20038B0000C002E54BF5533395E0F554E54CF5553395E0F556E5552553FAE5563554FBC38B
:2003AB00EA9408EB64809480D0025024E54C242EF9E54B254C2CF582E43DF583E493FB8533
:2003CB004BF005F0EB8002C313D5F0FBF7020471C002E5552553FAE5563554FBC3EA9410F3
:2003EB00EB64809480D0024076C002E5552553FAE5563554FBC3EA9410EB64809480D00254
:20040B004054C004C005E54C242EF9E5552553F582E5563554F583750C08750D00C007C041
:20042B0006C004C002C001120E90AB82AD83D001D002D004D006D007EB2EF582ED3FF583FF
:20044B00E493FD8AF005F0ED800225E0D5F0FBF7D005D0048010E54C242EF876008007E5ED
:20046B004C242EF87600054CC3E54C64809488500302038C754D1E75A0FF7580FF754F0090
:20048B0074F8254F4078E54F242EF98750854FF005F0755580E4F5563392D2800CA2D2E5B5
:2004AB005613F556E55513F555D5F0F175510074F82551402F8551F005F07A80E4FB3392C0
:2004CB00D28008A2D2EB13FBEA13FAD5F0F5E5555202E5565203EA4B24FF92B4D2B6C2B6DD
:2004EB00055180CB7580FFD2B5C2B5E550F4F5807B00BB050050030B80F8054F80827B647A
:20050B00DBFEC2B47B00D2B6C2B60BBB080040F6C004C005D2B5C2B5AA2B7B007C007D0032
:20052B008A828B838CF0EDC007C006C005C0041200ABD004D005AA2B7B007C007D008A825C
:20054B008B838CF0EDC005C0041200ABD004D005AA2B7B007C007D008A828B838CF0EDC09E
:20056B0005C0041200ABD004D005D006D007154DD005D004E54D6003020482054BC3E54B29
:20058B0064809490500302038302036EAF2C7E008E5774C025574068E557C423541F242E7C
:2005AB00F9870474075557FB8BF005F07B80E4FA3392D28008A2D2EA13FAEB13FBD5F0F504
:2005CB007D00EC5203ED5202EB4AB40100B392004028C007C006120C94D006D0078F0C757E
:2005EB000D00C007C006120E90E5828583F0D006D00745F070038E39221F0557AE57809277
:20060B0022E539B53702804BAE377F00750C088F0D8E828F83C007C006120EC6AC82D006B4
:20062B00D007EC242EF987055306077F008EF005F07E80E43392D28008A2D2EF13FFEE134C
:20064B00FED5F0F57C00ED5206EC5207EE4F600312015DE537FFC423541F242EF987065321
:20066B0007078FF005F07F80E4FD3392D28008A2D2ED13FDEF13FFD5F0F5EF4EF7E539B5BB
:20068B003732052B120597E539FFC423541F242EF987065307078FF005F07F80E4FD33923F
:2006AB00D28008A2D2ED13FDEF13FFD5F0F5EF4EF7152C22E538FFC423541F242EF98706C4
:2006CB005307078FF005F07F80E4FD3392D28008A2D2ED13FDEF13FFD5F0F5EFF45EF7AF28
:2006EB003874075FFE8EF005F07E80E4FD3392D28008A2D2ED13FDEE13FED5F0F5EFC4236E
:20070B00541FFF2442F98705EE5205EDB40100B39201E43325E0FDEF243AF9E75206EEB404
:20072B000100B39201E433FFED4207EF24FC4022EF2F90074173800680078008800D1538D2
:20074B0022053822E53824F8F53822AF3874082FF5382274F82537400312015D7403B52DD0
:20076B000122AF378F0674075FFD8DF005F07D80E4FC3392D28008A2D2EC13FCED13FDD54A
:20078B00F0F5EFC423541F2442F98707EDF45FF7EEC423541FFE2442F98707ED4FF7EE2484
:2007AB003AF98707EDF45FF7E53724F8F537752D0202060C74C82537500312015D7402B594
:2007CB002D0122AF378F0674075FFD8DF005F07D80E4FC3392D28008A2D2EC13FCED13FD92
:2007EB00D5F0F5EFC423541F2442F98707EDF45FF7EEC423541FFE2442F98707ED4FF7EE73
:20080B00243AF98707EDF45FF78707ED4FF7AF3774082FF537752D0302060CE537540760A3
:20082B0002800312015D7401B52D0122AF378F0674075FFD8DF005F07D80E4FC3392D28086
:20084B0008A2D2EC13FCED13FDD5F0F5EFC423541F2442F98707EDF45FF7EEC423541F2486
:20086B003AF98707EDF45FF71537752D0002060C74075537FE7F00BE0706BF000312015DF2
:20088B00E52D700122AF378F0674075FFD8DF005F07D80E4FC3392D28008A2D2EC13FCED8C
:2008AB0013FDD5F0F5EFC423541F2442F98707EDF45FF7EEC423541F243AF98707EDF45F89
:2008CB00F78707ED4FF70537752D0102060C758C4B758AFF221208D97529F9752AFFE536B3
:2008EB0024FC4022E53675F003A49008F97302090E02090502090B02090802075E0207BFBF
:20090B0002082602087B85362B2253890F438920758DFD758BFDC2ABD28EC29FD29ED2AC20
:20092B00D2AFD29C22C021C0E0C0F0C082C083C007C006C005C004C003C002C001C000C009
:20094B00D075D00075A01030981AE599F4F5A0859924AF24740A2FF52B852436308C0312D7
:20096B0008E0C298D0D0D000D001D002D003D004D005D006D007D083D082D0F0D0E0D021E8
:20098B0032C021C0E0C0F0C082C083C007C006C005C004C003C002C001C000C0D075D00073
:2009AB000525E4B5250C0526B526070527B5270205281208D90529E4B52902052A750C035C
:2009CB00E4F50DF50EF50F8525828526838527F0E528120C11AC82AD83AEF0FFEC4D4E4F1C
:2009EB007062E5586031E539FFC423541F242EF987065307078FF005F07F80E4FD3392D2B1
:200A0B008008A2D2ED13FDEF13FFD5F0F5EFF4FF5EF7755800802DE539FFC423541F242E9D
:200A2B00F987065307078FF005F07F80E4FD3392D28008A2D2ED13FDEF13FFD5F0F5EF4EE8
:200A4B00F7755801750C0A750D00852982852A83120E90E5828583F045F0702EE52D24FC43
:200A6B004028E52D75F003A4900A7773020A8D020A92020A83020A8812075E800D1207BF2B
:200A8B008008120826800312087BD0D0D000D001D002D003D004D005D006D007D083D0828A
:200AAB00D0F0D0E0D02132120915D288D2A8D2AF758921758C4B758AFF1208D97405B53653
:200ACB00FBD2A9D28C852582852683120D00758000C2B6C2B5752EE0753702747F5542F52A
:200AEB0042747F553AF53A7480453AF53A74BF5542F54274BF553AF53A7440453AF53A748E
:200B0B00DF5542F54274DF553AF53A7420453AF53A753800120597E539FFC423541F242EA6
:200B2B00F987065307078FF005F07F80E4FD3392D28008A2D2ED13FDEF13FFD5F0F5EF4EE7
:200B4B00F775A0FF7580FF7F00BF08005069EF242EF987598FF005F07C80E4FD3392D2800A
:200B6B0008A2D2ED13FDEC13FCD5F0F57B00BB0800502B8BF005F07A80E4FE3392D2800818
:200B8B00A2D2EE13FEEA13FAD5F0F5EC5202ED5206EA4E24FF92B4D2B6C2B60B80D07580B0
:200BAB00FFD2B5C2B5E559F4F5807E00BE050050030E80F80F80927F64DFFEC2B47F00D2C4
:200BCB00B6C2B60FBF080040F6D2B5C2B5AC2B7D007E007F008C828D838EF0EF1200ABAC8D
:200BEB002B7D007E007F008C828D838EF0EF1200ABAC2B7D007E007F008C828D838EF0EF21
:060C0B001200AB020B4CCD
:200F02003F065B4F666D7D077F6F8142241818244281183C7EFFFF7E3C180066FFFF7E3CDD
:200F220018003C4281A58199423C3C4281818181423C605050101010101F000000000000FC
:200F420000000000000000000000000000000000000000000000000000000000000000008F
:200F62000000000000000000000000000000000018180000001818000000000018180000DF
:200F820000002400811818810024002400818100240024008100008100240024000000001D
:200FA200240000002400002400000000002424000000000000000024240000000000000033
:020FC20000002D
:200C1100F9E50C450D450E450F60777800C308E50F20E73BE50C25E0F50CE50D33F50DE58D
:200C31000E33F50EE50F33F50FE582950CE583950DE5F0950EE9950F50D4C3E50F13F50F2B
:200C5100E50E13F50EE50D13F50DE50C13F50CE582950CFCE583950DFDE5F0950EFEE9956F
:200C71000F4007F98EF08D838C82C3E50F13F50FE50E13F50EE50D13F50DE50C13F50CD8BD
:030C9100CEE92287
:0B009D00750801E4F509F50A750B80F9
:200C9400AC08AD09AE0AAF0B8D00EEC313C813C8C313C813C8F9EF030354C049F9EF0303BE
:200CB400543FFA7B00EC6200ED6201EE6202EF6203E828FDE933FEEA33FF7C00E86204E9DE
:200CD4006205EA6206EB6207EFC313F8E4F9FAFBE86204E96205EA6206EB62078C088D09F6
:200CF4008E0A8F0B8C82747F5DF58322AE82AF837D007C008E088F098D0A74804CF50B2234
:200D1400FB7A20E4FCFDFEFFE5822582F582E58333F583E5F033F5F0EB33FB4017DAE98018
:200D340042E5822582F582E58333F583E5F033F5F0EB33FBEC33FCED33FDEE33FEEF33FF47
:200D5400EC950CED950DEE950EEF950F4013EC950CFCED950DFDEE950EFEEF950FFF4382F1
:050D740001DABEEB22D4
:06005800E478FFF6D8FD7C
:200036007900E94400601B7A00900FC4780175A000E493F2A308B8000205A0D9F4DAF2759D
:02005600A0FF09
:200D7900E50C450D60467A01E50C25E0F50CE50D334012F50DE582950CE583950D40030A27
:200D990080E6C3E50D13F50DE50C13F50CC3E582950CF5F0E583950D4005F58385F082C3D4
:0D0DB900E50D13F50DE50C13F50CDAE12244
:20005E007800E84400600A790175A000E4F309D8FC7800E84400600C7900900001E4F0A3A0
:04007E00D8FCD9FAD7
:200DC6007A10E4FBFCE58225E0F582E58333F583EB33FBEC33FCEB950CF5F0EC950D400639
:090DE600FCABF0438201DADD22CE
:200DEF00F9C2D530E715D2D5E4C39582F582E49583F583E495F0F5F0E499F9E50F30E715F4
:200E0F00E4C3950CF50CE4950DF50DE4950EF50EE4950FF50FE9120C1130D512E4C39582EF
:0F0E2F00F582E49583F583E495F0F5F0E49922DC
:200E3E00FBC2D530E715D2D5E4C39582F582E49583F583E495F0F5F0E49BFBE50F30E7179C
:200E5E00B2D5E4C3950CF50CE4950DF50DE4950EF50EE4950FF50FEB120D1430D513FBE4F1
:120E7E00C39582F582E49583F583E495F0F5F0E49B22AE
:0D002900758159120EFEE58260030200266B
:200E9000C2D5E58330E70DD2D5E4C39582F582E49583F583E50D30E70BE4C3950CF50CE48E
:160EB000950DF50D120D7930D50BE4C39582F582E49583F5832215
:200EC600C2D5E58330E70DD2D5E4C39582F582E49583F583E50D30E70DB2D5E4C3950CF5BF
:180EE6000CE4950DF50D120DC630D50BE4C39582F582E49583F58322A0
:040EFE0075820022D7
:00000001FF
